:020000040800F2
:100000008805002045010008C5010008C701000857
:10001000CB010008CF010008D30100080000000058
:10002000000000000000000000000000D7010008F0
:10003000D901000800000000DB010008DD01000814
:100040005F0100085F0100085F0100085F01000810
:100050005F0100085F0100089F0200085F010008BF
:100060005F0100085F0100085F0100085F010008F0
:100070005F0100085F0100085F0100085F010008E0
:100080005F0100085F0100085F0100085F010008D0
:100090005F0100085F0100085F0100085F010008C0
:1000A0005F0100085F0100085F0100085F010008B0
:1000B0005F0100085F0100085F0100085F010008A0
:1000C0005F0100085F0100085F0100085F01000890
:1000D0005F010008070200085F0100085F010008D7
:1000E0005F0100085F0100085F0100085F01000870
:1000F0005F0100085F0100085F0100085F01000860
:100100005F0100085F0100085F0100085F0100084F
:100110005F0100085F0100085F0100085F0100083F
:100120005F0100085F0100085F0100085F0100082F
:10013000DFF80CD003F0BCFF00480047690100085D
:10014000880500200648804706480047FEE7FEE78E
:10015000FEE7FEE7FEE7FEE7FEE7FEE7FEE7FEE777
:10016000FB3B00083101000800F0ECF800F044F916
:1001700000F081F900F05CFD01F0FBFA01F08EF96E
:1001800001F018FB01F04EFB00F03AFE00F050FACF
:1001900001F01BF900F082FF01F090FA0CE0074833
:1001A0000068012804D100F090FC00200349086099
:1001B0000348006800F050FEF1E70000080000204E
:1001C00000000020704700BFFEE700BFFEE700BF51
:1001D000FEE700BFFEE770477047704710B500F0BC
:1001E000F8F84B480078401C4949087008460078E8
:1001F000192807DB47480078401C46490870002052
:100200004349087010BD10B540F22551424802F034
:10021000E5F8002842D04048001D00883F49404A88
:100220001278885408463E490978405C552809D11F
:100230003B480078401E3949085CFF2802D1012064
:10024000384908703748007801280BD13248001D22
:1002500000883549354A1278885434480078401C63
:10026000324908702E480078401C2D4908702F48EC
:100270000078801E2C49085CAA280FD12B480078F2
:10028000401E085CBB2809D100202649087024497B
:1002900008700120254908702549086010BD10B577
:1002A000012003F0CFF8002831D02248007828B38D
:1002B00018480078322806DA164800781E2802DB33
:1002C00000201D490870134800781C491A4A12780A
:1002D000885400200F49087017480078401C1649C0
:1002E00008700846007821280ED1012014490870B2
:1002F0000020114908700F49087005E000200549E9
:10030000087001200B490870012003F0ACF810BD03
:100310000D0000200C000020003801406800002083
:1003200004000020060000207C00002007000020C0
:10033000080000200F0000200E00002062010020B5
:100340001D00002030B527480068274AB0FBF2F1B5
:10035000B1F1807F01D301201DE021F07F40401EDC
:100360004FF0E022506150170F22002807DA1307E0
:100370001D0E1E4B00F00F04241F1D5503E0130734
:100380001C0E1B4B1C5400BF00204FF0E02290615C
:1003900007201061002008B100BFFEE74FF0E02009
:1003A000006940F001004FF0E021086130BD01B567
:1003B0001049009808604FF0E020006940F001000B
:1003C0004FF0E021086100BF0A4800680028FBD117
:1003D00008BD0848006820B106480068401E05496D
:1003E0000860704750000020A086010018ED00E072
:1003F00000E400E01000002000B585B0012144F2C7
:10040000040001F0C7FD4FF40070ADF81000182093
:100410008DF8130003208DF8120004A9824801F022
:10042000FDFA4FF48060ADF8100004208DF8130041
:1004300004A97D4801F0F2FA4FF4E1300090002069
:10044000ADF80400ADF80600ADF80800ADF80C00FA
:100450000C20ADF80A006946744801F042FE012202
:1004600040F22551714801F0D4FE01216F4801F09E
:10047000C4FE05B000BD08B54FF4E06001F0F2FF26
:1004800025208DF8000001208DF8010000208DF856
:10049000020001208DF80300684601F0E8FF08BD66
:1004A00070B504460D46E1B2604801F013FF00BF8D
:1004B00040215E4801F07CFF0128F9D1204670BD43
:1004C000F0B503460D461646002729460A2E03D0EE
:1004D000002008702846F0BD33B9302001F8010B28
:1004E000002008702846F6E7002B03DA2D2001F8DB
:1004F000010B5B4242F210720DE093FBF2F404B97F
:1005000037B104F1300001F8010B04FB123301276D
:100510000A2092FBF0F2002AEFDC00200870284647
:10052000D9E70FB470B586B006460CA8019073E009
:100530000B9800785C281CD10B98401C0B9000781D
:100540006E2809D072280FD10D21304601F0C2FE6D
:100550000B98401C0B900BE00A21304601F0BAFECC
:100560000B98401C0B9003E00B98401C0B9000BFB5
:100570004BE00B980078252840D10B98401C0B903D
:100580000078642818D0732833D1019810C80190DE
:100590000BE02178304601F09DFE00BF402130463F
:1005A00001F006FF0028F9D0641C20780028F0D163
:1005B0000B98401C0B9020E0019820C801900A2263
:1005C00002A92846FFF77CFF02AC0BE021783046F9
:1005D00001F080FE00BF4021304601F0E9FE002816
:1005E000F9D0641C20780028F0D10B98401C0B90A7
:1005F00003E00B98401C0B9000BF06E00B9810F82E
:10060000011B0B90304601F065FE00BF40213046D3
:1006100001F0CEFE0028F9D00B980078002887D191
:1006200006B070BC5DF814FB0008014000380140C2
:1006300008B50121202001F0ADFC4FF48050ADF849
:10064000000010208DF8030003208DF80200694699
:10065000574801F0E3F94FF48051554801F08BFA07
:1006600008BD08B54FF48050ADF8000048208DF863
:10067000030069464E4801F0D1F908BD08B54FF4B2
:100680008050ADF8000010208DF8030003208DF895
:1006900002006946464801F0C1F908BD70B5002561
:1006A000002427E000BF4FF48051414801F049FA8F
:1006B0000028F8D00620FFF77AFE4FF480513C481E
:1006C00001F03FFA01280ED100BF4FF480513848A5
:1006D00001F037FA0128F8D0C4F107010120884061
:1006E000C0B2054304E0C4F10701012088408543FE
:1006F000601CC4B2082CD5DB284670BD10B504467A
:10070000FFF7BCFF4FF48051294801F036FA4FF44F
:10071000E160FFF74CFE4FF48051254801F02BFAC1
:100720000320FFF744FEFFF79CFF4FF48051204861
:1007300001F007FA88BB00BF4FF480511C4801F05C
:1007400000FA0028F8D000BF4FF48051184801F09B
:10075000F8F90128F8D0FFF7A1FF2070FFF79EFFFE
:100760006070FFF79BFFA070FFF798FFE070FFF746
:1007700095FF2071FFF782FF4FF480510C4801F084
:10078000FAF9207861780844A1780844E1780844AF
:100790002179884202D1012010BD01E00020FBE751
:1007A0000020F9E710B50348FFF7A8FF10BD0000CF
:1007B000001401401400002010B5FF21D8A003F060
:1007C00099FC5521D6A003F095FC10BD10B50D2164
:1007D000D3A003F08FFC0A21D1A003F08BFC10BD45
:1007E00010B504462146CEA003F084FC10BD10B520
:1007F000FFF7E2FFFFF7EAFF10BD10B50146C94C55
:100800004B1CE35C13B92346585C0AE0C54C4B1CF7
:10081000E25CC2EB0223C3F1FF03645C1B1B5B1CA5
:10082000D8B210BD2DE9F84F044600250026002758
:10083000A84600200090814682468346B9488579C3
:100840000B2C17D006DC082C22D0092C19D00A2C2E
:100850004AD106E01E2C30D0202C35D0342C43D188
:100860003BE00720FFF7C9FF06463146284600F067
:10087000E7F939E0AB48C779E8B2394600F05CFAED
:1008800032E0A84890F80780A748C0F800802BE025
:10089000A448007A0090A34890F8099090F80AA024
:1008A00090F80BB0A14880F8009080F801A080F883
:1008B00002B0012100F057FE16E09A48C779394688
:1008C000284601F016F80FE00720FFF796FF0646CE
:1008D0003146284600F0B4F906E09248C779394617
:1008E000284600F0C9FF00BF00BFBDE8F88F10B573
:1008F00004460220FFF774FF8D4804600146087823
:10090000FFF76EFF8A494878FFF76AFF88498878C1
:10091000FFF766FF8649C878FFF762FF10BD10B584
:10092000044601217EA003F0E5FB21467CA003F0F4
:10093000E1FB10BD2DE9FC5F06464FF00008C14603
:10094000C24678488779BB460F2E7DD00CDC042E3A
:1009500068D004DC012E10D0032E1DD144E0072EF8
:1009600051D00E2EF9D17EE0172E25D01E2E69D043
:100970001F2E68D0232EF0D10FE000F055FD8146E8
:10098000FFF71AFF6B480078FFF72AFF484603F08D
:1009900065FA0090FFF7ABFF94E0384600F076FA76
:1009A00005466049C979A94201D1012100E0002131
:1009B0000846FFF7B4FF85E05A4890F80780FFF734
:1009C000F1FEB8F1000F03D0B8F1010F0AD104E035
:1009D00059490878FFF7A3FF04E057498878FFF7E3
:1009E0009EFF00BF00BF6DE04E49887900F05CFBC0
:1009F000009003F052FA8146484603F02FFA009027
:100A0000FFF775FF5EE04749887900F0A3FB00908F
:100A100003F043FA8146484603F020FA0090FFF7BE
:100A200066FF4FE03F49887900F0EAFB009003F051
:100A300034FA8146484603F011FA0090FFF757FF59
:100A400040E001E027E02EE0384600F077FC044665
:100A50003449C979A14201D1012100E000210846B1
:100A6000FFF75DFF2EE02F4890F807A000BF334846
:100A700000780028FBD000F045FE00202F490870C8
:100A80002F498978514501D1012100E00021084614
:100A9000FFF745FF16E0384600F032FA0190019862
:100AA000FFF73DFF0EE01F49887900F0FFFB009043
:100AB00003F0F3F98146484603F0D0F90090FFF7C0
:100AC00016FF00BF00BFBDE8FC9F70B51548C47895
:100AD0000679457917480470012E06D0022E11D0F0
:100AE000042E15D0052E19D115E0012D04D0FFF7E5
:100AF00063FEE0B2FFF774FE2846FFF71BFFFFF727
:100B000065FE0BE02846FFF78DFEFFF770FE05E05F
:100B1000FFF76DFE02E0FFF76AFE00BF00BF70BD89
:100B2000256300007C000020000000201A00002047
:100B30002000002019000020140000201D000020CB
:100B40003600002008B50121084601F030FA0121E5
:100B5000042001F01FFA0F20ADF8000018208DF8D6
:100B6000030003208DF802006946344800F056FF68
:100B700008BDF0B587B019270024192500260121EA
:100B8000084601F014FA40F2E730ADF8140040F2E4
:100B90009F50ADF810000020ADF81600ADF812001F
:100BA00004A9A80701F0A0FD6020ADF80000012015
:100BB000ADF802000020ADF80800ADF806706946F7
:100BC000A80701F0CEFD0821C80602F019FAADF819
:100BD00006406946A80701F006FE0821C80602F093
:100BE00018FAADF806506946A80701F049FE082139
:100BF000C80602F01BFAADF806606946A80701F0C6
:100C00008AFE0821C80602F01AFA0121880702F0BC
:100C1000C7F901220221480702F0DDF80121880707
:100C200002F0CAF80121880702F0BAF807B0F0BD57
:100C300010B5FFF787FFFFF79CFF10BD00080140CC
:100C40002DE9F04781460C46CA46204604EBD07198
:100C50004C10BAF1090F06D0BAF10A0F14D0BAF14C
:100C60000B0F32D120E0204603F006F907464FF083
:100C700033322F4B03F080F8054603F027F9044682
:100C80004FF080418C8720E0204603F0F5F80746BE
:100C90004FF03332264B03F06FF8054603F016F998
:100CA000044624490C8010E0204603F0E5F807468E
:100CB0004FF033321E4B03F05FF8054603F006F9A0
:100CC00004464FF080410C8700BF00BFBDE8F087AD
:100CD0002DE9F04781460C46CA46BAF1090F03D008
:100CE000BAF10A0F21D110E0204603F0C5F80746FB
:100CF0004FF033320E4B03F03FF8054603F0E6F8B1
:100D000004464FF080418C870FE0204603F0B4F892
:100D100007464FF03332064B03F02EF8054603F03A
:100D2000D5F8044603490C8000BF00BFBDE8F0873A
:100D300033330F404000004010B50246092A04D06A
:100D40000A2A0CD00B2A1ED113E001EB81030924DF
:100D500093FBF4F31933D9B2A307998713E001EB9E
:100D60008103092493FBF4F31933D9B2074B19809B
:100D700009E001EB8103092493FBF4F31933D9B2A1
:100D8000A307998600BF00BF10BD000040000040CF
:100D900006E0002100E0491CB1F5347FFBD3401E82
:100DA0000028F6DC704708B50121402001F0F2F878
:100DB0004FF6FF70ADF8000003208DF80200102000
:100DC0008DF8030069462E4800F028FE08BD08B5DE
:100DD0000121082001F0DEF84FF42050ADF80000AA
:100DE00003208DF8020010208DF803006946254885
:100DF00000F014FE4FF42051224800F0BCFE08BD64
:100E000010B5FFF7D0FFFFF7E2FF10BD70B5044645
:100E10000D464FF400611B4800F0AFFE4FF4005147
:100E2000184800F0A8FE2102154800F0ADFE64202D
:100E3000FFF7AEFF4FF40051124800F09EFE4FF452
:100E40000061104800F097FE29020D4800F09CFE5A
:100E50006420FFF79DFF70BD70B504460025002695
:100E60000A2094FBF0F0C5B20A2094FBF0F100FBDD
:100E70001140C6B2044A915D505DFFF7C7FF70BDD7
:100E800000180140000C01402400002070B5054608
:100E900000262E46042E06D0052E0FD0062E18D082
:100EA0000B2E2AD11FE04FF400712C4800F09FFC5C
:100EB000012801D1002400E001241EE04FF48061EC
:100EC000264800F094FC012801D1002400E0012410
:100ED00013E01021214800F08AFC012801D10024F0
:100EE00000E0012409E020211C4800F080FC0128DA
:100EF00001D1012400E0002400BF00BF204670BDE6
:100F000070B5054600262E46042E04D0052E0DD0C1
:100F1000062E20D115E04FF40071104800F067FC58
:100F2000012801D1002400E0012414E04FF4806185
:100F30000A4800F05CFC012801D1002400E00124F3
:100F400009E01021054800F052FC012801D10024DD
:100F500000E0012400BF00BF204670BD000C01402E
:100F600008B50121084601F008F801214FF404708A
:100F700001F010F81F20ADF8000000208DF80300EC
:100F80006946E94800F04AFD08BD00B591B0E74860
:100F900002F09AFCE6480690E64807900020089088
:100FA0001920099000200A9080200B9040000C909E
:100FB00080000D9020200E9000020F9000201090D5
:100FC00006A9DA4802F022FD0121D84802F049FDC5
:100FD000D7484C3802F050FA0020019001208DF8DB
:100FE00008008DF809004FF4602003900020049061
:100FF00005208DF8140001A9CD484C3802F063FAA1
:101000004FF4404000F02AFF072301220A21C8487C
:101010004C3802F0F0FA072302220B21C4484C3866
:1010200002F0E9FA072303220C21C1484C3802F0F0
:10103000E2FA072304220D21BD484C3802F0DBFA06
:10104000072305220E21BA484C3802F0D4FA0121B8
:10105000B7484C3802F06EFA0121B5484C3802F01E
:101060005EFAB3484C3802F07CFA00BFB0484C3806
:1010700002F07CFA0028F9D1AD484C3802F080FA31
:1010800000BFAB484C3802F080FA0028F9D10121AA
:10109000A7484C3802F083FA11B000BD10B5FFF735
:1010A0005FFFFFF772FF10BD2DE9F84F81464FF04B
:1010B000000ACA46BAF1070F06D0BAF1080F19D0D4
:1010C000BAF10B0F42D12BE09A49C88802F0CFFE4B
:1010D0004FF08B41009002F011FE834602F015FFA5
:1010E00007460022944B02F047FE054602F020FF1F
:1010F00004462BE08F49088902F0B9FE4FF08B417E
:10110000009002F0FBFD834602F0FFFE074600223E
:10111000894B02F031FE054602F00AFF044615E055
:101120008449088802F0A3FE4FF08B41009002F042
:10113000E5FD834602F0E9FE054600227E4B02F003
:101140001BFE074602F0F4FE044600BF00BF204627
:10115000BDE8F88F2DE9F84F81464FF0000ACA46E6
:10116000BAF1070F06D0BAF1080F19D0BAF10B0F78
:1011700042D12BE06F49C88802F079FE4FF08B41D5
:10118000009002F0BBFD834602F0BFFE074600223E
:10119000694B02F0F1FD054602F0CAFE04462BE061
:1011A0006449088902F063FE4FF08B41009002F021
:1011B000A5FD834602F0A9FE074600225E4B02F021
:1011C000DBFD054602F0B4FE044615E059494888A7
:1011D00002F04DFE4FF08B41009002F08FFD8346F0
:1011E00002F093FE05460022534B02F0C5FD074670
:1011F00002F09EFE044600BF00BF2046BDE8F88F07
:101200002DE9F84F81464FF0000ACA46BAF1070FA0
:1012100006D0BAF1080F19D0BAF10B0F42D12BE06A
:101220004449C88802F023FE4FF08B41009002F041
:1012300065FD834602F069FE074600223E4B02F040
:101240009BFD054602F074FE04462BE039490889EF
:1012500002F00DFE4FF08B41009002F04FFD8346EF
:1012600002F053FE07460022334B02F085FD05468F
:1012700002F05EFE044615E02E49888802F0F7FD74
:101280004FF08B41009002F039FD834602F03DFEA5
:1012900005460022284B02F06FFD074602F048FE8B
:1012A000044600BF00BF2046BDE8F88F2DE9F84F87
:1012B00004464FF0000AA246BAF1070F03D0BAF174
:1012C000080F2CD115E01B49C88802F0D0FD4FF063
:1012D0008B41009002F012FD834602F016FE074695
:1012E0000022154B02F048FD054602F021FE814622
:1012F00015E01049088902F0BAFD4FF08B410090CB
:1013000002F0FCFC834602F000FE074600220A4B76
:1013100002F032FD054602F00BFE814600BF00BF21
:101320004846BDE8F88F0000001001400800024068
:101330004C240140900000200000594070B5054643
:1013400000262E46042E06D0052E0FD0062E18D0CD
:101350000B2E2AD11FE04FF40071154800F047FA18
:10136000012801D1002400E001241EE04FF4806137
:101370000F4800F03CFA012801D1002400E00124CC
:1013800013E010210A4800F032FA012801D10024AC
:1013900000E0012409E00221054800F028FA0128B4
:1013A00001D1012400E0002400BF00BF204670BD31
:1013B000000C014006E0002101E04A1CD1B248299E
:1013C000FBDB401E0028F6DC704708B50121102029
:1013D00000F0E0FD4FF48070ADF8000010208DF8B3
:1013E000030003208DF802006946294800F016FB2F
:1013F0004FF40070ADF8000004208DF8030069463A
:10140000234800F00BFB08BD10B5224801F07FFF18
:1014100000EB800000EB001040004FF4FA6190FBFD
:10142000F1F01D49088010BD10B54FF480711848C7
:1014300000F0A1FB1420FFF7BDFF4FF480711448AA
:1014400000F09BFB00BF4FF40071114800F079FBE6
:101450000028F8D001210F4801F0A2FC00BF4FF492
:1014600000710B4800F06DFB0028F8D100210948FD
:1014700001F096FCFFF7C8FF0021064801F024FFA9
:1014800005480088801C044908800846008810BD73
:1014900000100140000800403400002010B594B056
:1014A0000121042000F076FD4020ADF83000182026
:1014B0008DF8330003208DF832000CA96F4800F03E
:1014C000ADFA0121022000F072FD6D4800686D49FF
:1014D000B0FBF1F0401E84B21D20ADF84800ADF81D
:1014E00044400020ADF84A00ADF8460011A9664816
:1014F00001F0FAF86020ADF834000120ADF83600B4
:101500000020ADF83A00ADF83C000DA95E4801F0AE
:1015100028F90121084600F030FD5C4802F0D4F9BA
:101520005948343001905A480290102003902A20E4
:1015300004900020059080200690400007908000D5
:101540000890002009904FF400500A9000200B9062
:1015500001A94E4802F05AFA012251024A4801F00C
:101560004AFC14B010BD2DE9F04706460F4607EBC4
:1015700047002A2101EBC0001FFA80F900244FF038
:1015800000084FE0002514E008EB480030444078A4
:10159000A84000F0800020B111203D4921F814003E
:1015A00003E009203A4921F81400601C84B2681C49
:1015B000C5B2082DE8DB002513E008EB4800305CDD
:1015C000A84000F0800020B11120314921F814001A
:1015D00003E009202E4921F81400601C84B2681C25
:1015E000C5B2082DE9DB002514E008EB48003044C3
:1015F0008078A84000F0800020B11120244921F813
:10160000140003E00920224921F81400601C84B270
:10161000681CC5B2082DE8DB08F1010000F0FF08E6
:10162000781E87B2002FADD105E00020184921F8BF
:101630001400601C84B24C45F7DB4946134802F0A5
:1016400025FA0121114802F00CFA01210E4801F09F
:10165000A7FB00BF4FF4001002F01EFA0028F9D0DB
:101660000021094801F09CFB0021084802F0F9F92B
:101670004FF4001002F024FABDE8F08700080140A2
:101680005000002000366E01000400406C00024053
:101690009A00002008B54FF4C06000F0E3FE062079
:1016A0008DF8000000208DF801008DF80200012067
:1016B0008DF80300684600F0DAFE08BD0EB5012182
:1016C000092000F067FCFFF7E5FF0120ADF80800F6
:1016D00048208DF80B0002A9184800F09FF900215E
:1016E000012000F0B1FA0120009000208DF80400E4
:1016F0000C208DF8050001208DF80600684601F0E9
:101700003BFE0EBD30B50123002013E001220AE0AC
:1017100049100B4DEC5C072C01DD41F080015D1C94
:10172000EBB2551CEAB2082AF2DD064D295400211D
:10173000451CE8B20428E9DB30BD0000000C014084
:10174000620100203600002008B54FF4E06000F090
:1017500089FE1E208DF8000000208DF80100032076
:101760008DF8020001208DF80300684600F07FFE2E
:1017700008BD0EB50121042000F019FC0C4800F052
:10178000DFFE4FF6FF70ADF8040040F26710ADF8D1
:1017900000000020ADF80600ADF8020069460448DC
:1017A00000F0A2FF0121024801F0C0FD0EBD0000C3
:1017B0000008004008B50121082000F0EBFB40F2D2
:1017C0003260ADF8000001208DF8020048208DF84D
:1017D00003006946124800F021F908BD01B502E096
:1017E0000098401E009000980028F9D108BD70B5FF
:1017F00004460D462946204600F0A3F901280CD1E5
:1018000042F21070FFF7EAFF2946204600F099F9EE
:10181000012800D170BD0020FCE70020FAE700009D
:10182000000C014008B50121282000F0B3FB4FF463
:10183000E070ADF8000010208DF8030003208DF853
:1018400002006946434800F0E9F88020ADF8000046
:1018500010208DF8030003208DF8020069463E48F1
:1018600000F0DCF84FF4E0713A4800F086F980218E
:10187000394800F082F908BD70B505460C46EEB255
:10188000012E06D0022E0FD0032E18D00B2E2ED1F3
:1018900022E024B140212F4800F06DF903E04021FF
:1018A0002C4800F06AF922E024B18021294800F098
:1018B00062F903E08021274800F05FF917E02CB1BE
:1018C0004FF48071234800F056F904E04FF4807122
:1018D000204800F052F90AE024B180211E4800F0AF
:1018E0004AF903E080211C4800F047F900BF00BF1F
:1018F00070BD70B505460C46EEB2012E04D0022E26
:101900000DD0032E23D115E024B14021114800F061
:1019100032F903E040210F4800F02FF917E024B11D
:1019200080210C4800F027F903E08021094800F0ED
:1019300024F90CE02CB14FF48071064800F01BF93B
:1019400004E04FF48071034800F017F900BF00BFB6
:1019500070BD0000000C01400014014010B50446A9
:10196000CC48844208D10121042000F02DFB002145
:10197000042000F029FB46E0C748844208D1012139
:10198000082000F021FB0021082000F01DFB3AE0B8
:10199000C248844208D10121102000F015FB00212B
:1019A000102000F011FB2EE0BD48844208D1012137
:1019B000202000F009FB0021202000F005FB22E0A0
:1019C000B848844208D10121402000F0FDFA0021EE
:1019D000402000F0F9FA16E0B348844208D1012112
:1019E000802000F0F1FA0021802000F0EDFA0AE0FA
:1019F000AE48844207D10121801500F0E5FA0021AC
:101A0000A01500F0E1FA10BD10B50121084600F064
:101A1000DBFA0021012000F0D7FA10BD2DE9F041DA
:101A2000024600250026002000230024002791F80C
:101A300003C00CF00F0591F803C00CF0100CBCF1C2
:101A4000000F03D091F802C04CEA050591F800C0E0
:101A5000BCF1000F31D0146800202BE04FF0010CD6
:101A60000CFA00F3B1F800C00CEA03069E4220D144
:101A700083004FF00F0C0CFA03F7BC4305FA03FC8C
:101A80004CEA040491F803C0BCF1280F06D14FF0D2
:101A9000010C0CFA00FCC2F814C00AE091F803C073
:101AA000BCF1480F05D14FF0010C0CFA00FCC2F854
:101AB00010C0401C0828D1D31460B1F800C0BCF19C
:101AC000FF0F34DD546800202EE000F1080C4FF0C9
:101AD000010808FA0CF3B1F800C00CEA03069E42B4
:101AE00021D183004FF00F0C0CFA03F7BC4305FA29
:101AF00003FC4CEA040491F803C0BCF1280F05D1A3
:101B000000F1080C08FA0CF8C2F8148091F803C030
:101B1000BCF1480F07D100F1080C4FF0010808FA9A
:101B20000CF8C2F81080401C0828CED35460BDE8E1
:101B3000F0814FF6FF710180022181700421C17094
:101B400070470246002093680B400BB1012000E073
:101B5000002070470146886880B270470246002026
:101B6000D3680B400BB1012000E000207047014614
:101B7000C86880B2704701617047416170470AB11F
:101B8000016100E041617047C16070474FF48032ED
:101B90000A4382618161826182698269704702467B
:101BA0000020434B18684FF68073184040EA02103B
:101BB00008433F4B186070473E49C8617047F0B515
:101BC0000A46002300240021002500F00046B6F15B
:101BD000004F02D1364EF16901E0354E7168C0F315
:101BE000034583B200F44016B6F5401F08D121F03A
:101BF00070612F4E766826F070662D4F7E6012E081
:101C000000F48016B6F5801F06D1032606FA05F407
:101C1000A14341F0706106E0460D360103FA06F675
:101C2000B14341F0706122B1460D360103FA06F668
:101C3000314300F00046B6F1004F02D11C4EF16175
:101C400001E01B4E7160F0BD30B500228B071C0F08
:101C50000F2303FA04F2164B08338C1053F8243088
:101C60009343134C08348D1044F8253023468C10D0
:101C700053F824308C07240F00FA04F423430C4C4F
:101C800008348D1044F8253030BD0A49DC31086035
:101C90007047000000080140000C014000100140A6
:101CA0000014014000180140001C014000200140C8
:101CB0000000014000002042DF48006840F00100C1
:101CC000DD49086008464068DC490840DA49486058
:101CD00008460068DA490840D749086008460068A5
:101CE00020F4802008600846406820F4FE00486028
:101CF0004FF41F0088607047CF49096821F4803194
:101D0000CD4A11601146096821F480211160B0F5B7
:101D1000803F03D0B0F5802F0ED106E0C649096898
:101D200041F48031C44A116007E0C349096841F4B5
:101D3000A021C14A116000E000BF00BF704710B58C
:101D400001460022002300204A11012A02D1BA4C88
:101D5000236806E0022A02D1B74C236A01E0B64CA0
:101D6000636A01F01F02012494401C400CB1012061
:101D700000E0002010BD38B50020009000240025B0
:101D800000BF3120FFF7DBFF05460098401C0090A4
:101D90000098B0F5A06F01D0002DF2D03120FFF7F0
:101DA000CEFF08B1012400E00024204638BD0146E2
:101DB0000020A14A106820F0F80040EAC10010603D
:101DC0007047A04908607047024600209A4B586847
:101DD00020F47C1042EA01031843974B5860704787
:101DE00098490866704701460020934A506820F0E1
:101DF00003000843506070478F48406800F00C00B3
:101E00007047014600208C4A506820F0F0000843DB
:101E10005060704701460020874A506820F4E06017
:101E200008435060704701460020834A506820F400
:101E3000605040EAC1005060704729B17E4A527A32
:101E400002437D4B5A7204E07B4A527A82437A4BBA
:101E50005A7270477B49D8310860704701460020AC
:101E6000754A506820F44040084350607047002194
:101E7000714A20321170704A82F82010012802D075
:101E800004280AD104E001216B4A2032117005E0D8
:101E90000521694A2032117000E000BF00BF704781
:101EA0006949086070476449096A0143624A1162DE
:101EB0007047654944390860704730B500210022F9
:101EC000002400235C4D6D6805F00C0121B104294C
:101ED00005D0082923D105E05C4D056022E05B4D6B
:101EE00005601FE0544D6D6805F47012524D6D6829
:101EF00005F48034022505EB92421CB9544D55433C
:101F000005600BE04C4D6D6805F400351DB1504D7A
:101F10005543056002E04D4D5543056002E04B4DD1
:101F2000056000BF00BF444D6D6805F0F001090970
:101F3000484D6B5C0568DD4045603F4D6D6805F4BC
:101F4000E061090A434D6B5C4568DD4085603A4DB0
:101F50006D6805F46051C90A3E4D6B5C4568DD4013
:101F6000C560354D6D6805F44041890B3A4D6B5C99
:101F7000C568B5FBF3F5056130BD29B12E4A52693C
:101F800002432D4B5A6104E02B4A526982432A4B8B
:101F90005A61704729B1284A92690243264B9A61D7
:101FA00004E0254A92698243234B9A61704729B124
:101FB000214AD2690243204BDA6104E01E4AD26909
:101FC00082431D4BDA61704729B11B4AD268024334
:101FD000194BDA6004E0184AD2688243164BDA6083
:101FE000704729B1144A12690243134B1A6104E085
:101FF000114A12698243104B1A61704712494039E5
:10200000086070470F49C86470470B49C871704732
:102010000948406A40F080700749486270470146AD
:102020000020054A92680A400AB1012000E0002021
:102030007047014988727047001002400000FFF8A5
:10204000FFFFF6FE000042428004424200127A0086
:1020500000093D003A0000204A00002010B5044667
:10206000FB48844209D101218803FFF7ADFF00211D
:102070004FF48040FFF7A8FF32E0F648844209D1D0
:1020800001214804FFF7ADFF00214FF40030FFF7B6
:10209000A8FF25E0F048844209D101218804FFF718
:1020A000A0FF00214FF48020FFF79BFF18E0EB48D2
:1020B000844209D10121C804FFF793FF00214FF4A6
:1020C0000020FFF78EFF0BE0E548844208D1012194
:1020D0000805FFF786FF00214FF48010FFF781FF0E
:1020E00010BD2DE9F04786B005460E460024A246F5
:1020F00000BFA1460027B08900B100BF2F462C8A3F
:102100004CF6FF700440F08804432C82AC894EF6F4
:10211000F3100440B08831890843718908430443AF
:10212000AC81AC8A4FF6FF400440B0890443AC82D6
:1021300001A8FFF7C2FEC648874202D1DDF810A011
:1021400001E0DDF80CA0A88900F4004040B10AEBE2
:10215000CA0000EB0A1031684900B0FBF1F807E053
:102160000AEBCA0000EB0A1031688900B0FBF1F8F5
:102170006420B8FBF0F004012009642101FB108900
:10218000A88900F4004040B1322000EBC900B0FB48
:10219000F1F000F00700044308E0322000EB0910E2
:1021A0006421B0FBF1F000F00F0004432C8106B075
:1021B000BDE8F0874FF41651016000218180C18095
:1021C00001810C21418100218181704710B50246B7
:1021D0000020108A4FF2FF0318400B884C882343DD
:1021E0008C882343CC8823431843108210BD0021E0
:1021F000018041808180C180704721B1828942F491
:102200000052828104E082894DF6FF731A40828178
:102210007047F0B50346002400260025002040F654
:102220006A17B94200D100BF1846C1F3421401F049
:102230001F06012707FA06F5012C01D10C3004E036
:10224000022C01D1103000E014301AB107682F437E
:10225000076002E00768AF430760F0BD1AB1838AE8
:102260000B43838202E0838A8B4383827047028A16
:102270004FF6F0731A400282028A0A4302827047C4
:1022800082894FF2FF731A40828182890A438281D8
:10229000704721B1828942F00202828104E0828982
:1022A0004FF6FD731A4082817047028A4FF6DF7342
:1022B0001A400282028A0A430282704721B1028ACE
:1022C00042F48042028204E0028A4BF6FF731A4015
:1022D00002827047C1F308028280704701468888F5
:1022E000C0F308007047818941F001018181704786
:1022F000028BD2B20283028B42EA01220283704730
:10230000028B02F47F420283028B0A4302837047EE
:1023100021B1828A42F02002828204E0828A4FF652
:10232000DF731A408282704721B1828A42F0100224
:10233000828204E0828A4FF6EF731A4082827047ED
:1023400021B1828A42F00802828204E0828A4FF63A
:10235000F7731A408282704721B1828942F40042A9
:10236000828103E08289C2F30E028281704721B12B
:10237000828A42F40062828204E0828A4FF2FF7312
:102380001A4082827047828A4FF6FB731A4082821B
:10239000828A0A438282704721B1828A42F0020215
:1023A000828204E0828A4FF6FD731A40828270476F
:1023B00002460020B1F5007F00D100BF13880B401A
:1023C0000BB1012000E00020704701F40072B2F56B
:1023D000007F00D100BFCA430280704770B502463B
:1023E000002400230025002040F66A16B14200D1E7
:1023F00000BFC1F3421501F01F03012606FA03F3E3
:10240000012D02D19689334006E0022D02D1168AB1
:10241000334001E0968A33400C12012606FA04F498
:102420001688344013B10CB1012000E0002070BDCB
:1024300010B50022002340F66A14A14200D100BF6B
:102440000A1201249440A3B2DC43048010BD0000B2
:10245000003801400044004000480040004C00406B
:102460000050004031490143314A1160704770B556
:10247000002100230F22C47804B32D4C246804F4F7
:10248000E064C4F5E064210AC1F10403CA40447861
:1024900004FA03F18478144021430901254C06789D
:1024A000A155047804F01F050124AC4005786D1196
:1024B000AD0005F1E025C5F8004109E0047804F01D
:1024C0001F050124AC401C4D0678761145F82640C6
:1024D00070BD1A4A0A400243154B1B1F1A60704711
:1024E00039B1134A121D12680243114B1B1D1A60A9
:1024F00006E00F4A121D126882430D4B1B1D1A6025
:102500007047042808D14FF0E021096941F0040127
:102510004FF0E022116107E04FF0E021096921F05E
:1025200004014FF0E0221161704700000000FA053D
:102530000CED00E000E400E080E100E080FFFF1F20
:1025400010B50446FE48844208D10121C014FFF7AB
:102550003BFD0021E014FFF737FDC4E0B4F1804FEC
:1025600008D101210846FFF73CFD00210120FFF7BB
:1025700038FDB8E0F348844208D101210220FFF77A
:1025800030FD00210220FFF72CFDACE0EE48844234
:1025900008D101210420FFF724FD00210420FFF7CA
:1025A00020FDA0E0E948844208D101210820FFF77E
:1025B00018FD00210820FFF714FD94E0E448844250
:1025C00008D101211020FFF70CFD00211020FFF79A
:1025D00008FD88E0DF48844208D101212020FFF770
:1025E00000FD00212020FFF7FCFC7CE0DA4884425B
:1025F00008D101214014FFF7E7FC00216014FFF728
:10260000E3FC70E0D548844209D10121C804FFF7FA
:10261000DBFC00214FF40020FFF7D6FC63E0D0483C
:10262000844209D101210805FFF7CEFC00214FF4B7
:102630008010FFF7C9FC56E0CA48844209D1012145
:102640004805FFF7C1FC00214FF40010FFF7BCFC68
:1026500049E0C548844208D101214020FFF7C1FC70
:1026600000214020FFF7BDFC3DE0C048844208D176
:1026700001218020FFF7B5FC00218020FFF7B1FC8D
:1026800031E0BB48844208D101218015FFF7A9FC45
:102690000021A015FFF7A5FC25E0B648844209D12A
:1026A00001210804FFF790FC00214FF48030FFF770
:1026B0008BFC18E0B048844209D101214804FFF79F
:1026C00083FC00214FF40030FFF77EFC0BE0AB48A9
:1026D000844208D101218804FFF776FC00214FF4E1
:1026E0008020FFF771FC10BD00220288944B9842B5
:1026F0000ED0994B98420BD0B0F1804F08D0914B3F
:10270000984205D0904B984202D0904B984204D109
:102710004FF68F731A404B881A438D4B984207D05F
:102720008C4B984204D04FF6FF431A40CB881A4393
:1027300002808B8883850B880385814B98420BD060
:10274000854B984208D08B4B984205D08A4B9842D3
:1027500002D08A4B984201D10B7A038601238382EF
:10276000704770B5002400220023058C4FF6FE76DA
:1027700035400584028C8388048B4FF68F752C407E
:10278000B51E2C400D882C43751E2A400D892A4306
:102790004D882A436A4DA8420BD06F4DA84208D0FD
:1027A000744DA84205D0744DA84202D0734DA84282
:1027B00013D14FF6F7752A404D892A434FF6FB7522
:1027C0002A408D882A434FF6FF652B404FF6FF5570
:1027D0002B408D892B43CD892B4383800483CD8867
:1027E0008586028470BD70B5002400220023058C0C
:1027F0004FF6EF7635400584028C8388048B48F6CB
:10280000FF752C404FF6FF452C400D884FF6FF76A4
:1028100006EA05252C434FF6DF752A400D8906EAA6
:1028200005152A434D8806EA05152A43444DA8425A
:1028300002D0494DA8421DD14FF67F752A404D89DF
:102840004FF6FF7606EA05152A434FF6BF752A4074
:102850008D8806EA05152A434FF6FF352B404FF2C7
:10286000FF752B408D8906EA85052B43CD8906EA45
:1028700085052B4383800483CD880587028470BD42
:1028800070B5002400220023058C4FF6FF6635400A
:102890000584028C8388848B4FF68F752C404FF60D
:1028A000FC752C400D882C434FF6FF552A400D89AE
:1028B0004FF6FF7606EA05252A434D8806EA0525E8
:1028C0002A431F4DA84202D0234DA8421DD14FF2EA
:1028D000FF752A404D894FF6FF7606EA05252A4303
:1028E0004FF6FF352A408D8806EA05252A434EF625
:1028F000FF752B404DF6FF752B408D8906EA0515B7
:102900002B43CD8906EA05152B4383808483CD882C
:102910008587028470BD70B5002200230024058CD9
:102920004EF6FF7635400584038C8488828B48F60A
:10293000FF752A404FF6FF452A400D8820E0000031
:10294000002C01400004004000080040000C004042
:10295000001000400014004000340140004C0140D1
:10296000005001400054014000180040001C00408D
:102970000020004000400140004401400048014068
:102980004FF6FF7606EA05252A434DF6FF752B40E4
:102990000D8906EA05352B434D8806EA05352B439C
:1029A000FA4DA84202D0FA4DA84208D14BF6FF7565
:1029B0002C408D894FF6FF7606EA85152C438480DE
:1029C0008283CD88A0F84050038470BD828B4FF283
:1029D000FF331A408283828B4FF6FF7303EA012391
:1029E0001A4382837047F0B50C4615460022002139
:1029F0000026078C4EF6FF7C07EA0C070784828BC3
:102A0000018C4FF6FF7707EA043640F6FF473A405D
:102A10004FF6FF7707EA05273A434FF6FF7707EAB5
:102A200003373A43D94FB8420ED0D94FB8420BD0F2
:102A3000B0F1804F08D0D74FB84205D0D64FB8423A
:102A400002D0D64FB84206D14DF6FF77394046F452
:102A50008057394305E047F6FF57394044F4805723
:102A6000394382830184F0BD828B4FF6F3731A40A1
:102A70008283828B0A4382837047F0B50C461546E9
:102A8000002200210026078C4FF6FF6C07EA0C0796
:102A90000784828B018C4FF6FF7707EA04264FF6F6
:102AA0000C773A404FF6FF7707EA03172F433A4374
:102AB000B64FB8420ED0B64FB8420BD0B0F1804FEF
:102AC00008D0B44FB84205D0B34FB84202D0B34F8C
:102AD000B84206D14FF6FF57394046F48077394364
:102AE00005E04FF2FF57394044F480773943828341
:102AF0000184F0BD028B4FF2FF331A400283028B38
:102B00004FF6FF7303EA01231A4302837047F0B5BF
:102B10000C461546002200210026078C4FF6EF7C5C
:102B200007EA0C070784028B018C4FF6FF7707EA50
:102B3000041640F6FF473A404FF6FF7707EA03379F
:102B40003A434FF6FF7707EA05273A438F4FB842DB
:102B50000ED08F4FB8420BD0B0F1804F08D08D4FC0
:102B6000B84205D08C4FB84202D08C4FB84206D143
:102B70004FF6DF77394046F01007394305E04FF64E
:102B80005F77394044F01007394302830184F0BD78
:102B9000028B4FF6F3731A400283028B0A430283BF
:102BA0007047F0B50C46154600220021068C4FF602
:102BB000FE773E400684028B018C4FF60C76324045
:102BC0007E1C06EA03162E433243704EB0420ED0EE
:102BD0006F4EB0420BD0B0F1804F08D06D4EB04276
:102BE00005D06D4EB04202D06C4EB04206D14FF6C9
:102BF000FD76314044F00106314305E04FF6F576AD
:102C0000314044F00106314302830184F0BD70B5C8
:102C100005460C465D4885420ED05D4885420BD086
:102C2000B5F1804F08D05B48854205D05A488542AF
:102C300002D05A48854200D100E000BF208850B938
:102C40002389A28861882846FFF7ABFFE1882846E0
:102C5000FFF79EFF25E0208804280AD12389A28857
:102C600061882846FFF753FFE1882846FFF742FFB7
:102C700017E0208808280AD12389A288618828467D
:102C8000FFF7FBFEE1882846FFF7EEFE09E0238907
:102C9000A28861882846FFF7A6FEE1882846FFF74C
:102CA00095FE70BD2DE9F04105460C460026012732
:102CB000608808B9022600E00026A088012801D11A
:102CC000022700E001272088A0B92389A288618813
:102CD0002846FFF766FFE1882846FFF759FF23895A
:102CE0003A4631462846FFF712FFE1882846FFF7AB
:102CF00001FF13E02389A28861882846FFF707FFB8
:102D0000E1882846FFF7F6FE23893A4631462846F1
:102D1000FFF747FFE1882846FFF73AFFBDE8F0815B
:102D20000A884B881A438B881A43CB881A430B892D
:102D30001A434B891A438B891A43A0F844207047E1
:102D40004FF6FF71818000210180C18041800172B6
:102D500070470021018041808180C18001814181D3
:102D60008181C181704700210180418001218180E2
:102D70000021C18001817047002101804180818054
:102D8000C18001814181818170470000002C014098
:102D9000003401400004004000080040000C0040E6
:102DA00021B1028842F00102028004E002884FF65D
:102DB000FE731A400280704731B1B0F8442042F4EB
:102DC0000042A0F8442005E0B0F84420C2F30E020F
:102DD000A0F8442070471AB183890B43838102E035
:102DE00083898B43838170478182704741EA020364
:102DF000A0F8483070471AB183890B43838102E001
:102E000083898B438381704701894FF6F8721140A3
:102E1000018170470A46002101894FF68F731940DE
:102E200011430181704730B504460D4629462046BE
:102E3000FFF7F0FF208940F00700208130BD2DE929
:102E4000F04104460D4616461F46602D06D13B460E
:102E5000012231462046FFF75AFE05E03B4601229B
:102E600031462046FFF79DFE29462046FFF7D2FF58
:102E7000208940F007002081BDE8F08130B50C4684
:102E800000210189C9B24FF6FF7505EA03251543F4
:102E900025432943018130BD2DE9F04105460E4609
:102EA00017469846002443463A4631462846FFF7DF
:102EB000E5FF2C894FF6F870044044F007044FF604
:102EC0008F70044044F070042C81BDE8F081F0B5AF
:102ED00004460D4616461F463B46324629462046C6
:102EE000FFF7CCFF208940F480402081F0BD0185B0
:102EF000828270470A46002101884FF68F7319407D
:102F0000114301807047F0B50C4615461E4600215E
:102F1000002200230189028B038C4FF6F877394099
:102F200021434FF6FC473A4040F201173A434FF62F
:102F3000DD773B404FF6FF7707EA06172F433B4309
:102F4000018102830384F0BD0A460021018B4FF604
:102F50008F7319401143018370470A460021018B8A
:102F600048F6FF7319404FF6FF7303EA0223194333
:102F7000018370470A460021818B4FF68F731940F9
:102F80001143818370470A460021818B48F6FF7305
:102F900019404FF6FF7303EA0223194381837047F8
:102FA00021B1028842F08002028004E002884FF6DC
:102FB0007F731A400280704721B1828842F0040278
:102FC000828004E082884FF6FB731A40828070474B
:102FD00021B1828842F00802828004E082884FF6A4
:102FE000F7731A408280704721B1828842F0010253
:102FF000828004E082884FF6FE731A408280704718
:103000000A460021018B4FF6F773194011430183E3
:1030100070470A460021018B4FF2FF7319404FF6AB
:10302000FF7303EA02231943018370470A46002114
:10303000818B4FF6F77319401143818370470A461D
:103040000021818B4FF2FF7319404FF6FF7303EAA3
:1030500002231943818370470A460021018B4FF6F2
:10306000FB7319401143018370470A460021018B0D
:103070004FF6FF3319404FF6FF7303EA022319435B
:10308000018370470A460021818B4FF6FB7319407C
:103090001143818370470A460021818B4FF6FF332D
:1030A00019404FF6FF7303EA0223194381837047E7
:1030B0000A460021018B4FF67F73194011430183AB
:1030C00070470A460021018BC1F30E014FF6FF73D2
:1030D00003EA02231943018370470A460021818BCA
:1030E0004FF67F7319401143818370470A460021D0
:1030F000818BC1F30E014FF6FF7303EA02231943DC
:10310000818370470A460021018C4FF6FD731940F8
:103110001143018470470A460021018C4FF6F77372
:1031200019401143018470470A460021018C4FF673
:10313000DF7319404FF6FF7303EA0213194301844A
:1031400070470A460021018C4FF67F7319404FF6F5
:10315000FF7303EA02131943018470470A460021F2
:10316000018C4FF6FF5319404FF6FF7303EA022319
:103170001943018470470A460021018C4FF2FF7306
:1031800019404FF6FF7303EA022319430184704785
:103190000A460021018C4DF6FF7319404FF6FF736C
:1031A00003EA023319430184704730B50023012438
:1031B0008C40A3B2048C9C430484048C02FA01F575
:1031C000ADB22C43048430BD30B5002304248C40C0
:1031D000A3B2048C9C430484048C02FA01F5ADB2C2
:1031E0002C43048430BD70B50346002000241846EB
:1031F000183001258D40ACB21D8CA5431D8409B14A
:10320000082909D100EB6100056825F0700505600B
:103210000568154305600EE00D1FC5F34E052844F3
:10322000056825F4E045056005684FF6FF7606EA77
:1032300002263543056070BD21B1028842F00202CA
:10324000028004E002884FF6FD731A400280704746
:1032500021B1028842F00402028004E002884FF6A5
:10326000FB731A400280704721B1828842F08002CD
:10327000828004E082884FF67F731A408280704714
:1032800002884FF6F7731A40028002880A430280D0
:10329000704782884FF68F731A40828082880A4373
:1032A0008280704702894FF6F8731A4002810289C2
:1032B0000A430281704702894FF67F731A400281E8
:1032C00002890A4302817047818470478185704773
:1032D000818670470187704781877047A0F840104A
:1032E000704702884FF6FF431A40028002880A4363
:1032F000028070470146888E70470146088F7047EC
:103300000146888F70470146B1F84000704701467A
:10331000888C70470146088D704702460020138A4A
:103320000B400BB1012000E000207047CA4302822D
:10333000704730B50246002000230024158A05EAB4
:103340000103958905EA010413B10CB1012000E0E5
:10335000002030BDCA43028270470000002044496B
:103360000860091D0860091D0860091D08604148C2
:103370003F4914310860704700213D498279002A95
:103380003AD00A46126803689A430B461A600A1D2F
:10339000126803689A430B1D1A60027911440A6887
:1033A00003681A430A60324A0832126803689A4373
:1033B0002F4B08331A601A1D126803689A432C4B6E
:1033C0000C331A604279102A0ED11A1F1268036852
:1033D0001A43274B08331A601A1D126803681A43F0
:1033E000234B0C331A600DE02149427911440A68DD
:1033F00003681A430A6005E0027911440A68036809
:103400009A430A6070470021016001710C214171EB
:103410000021817170471649103109680143144A2F
:1034200010321160704701460020114A14321268B0
:103430000A400AB1012000E0002070470C49143115
:1034400008607047014600200022094B1B6803EA10
:103450000102074B14331B680B4013B10AB1012062
:1034600000E00020704702491431086070470000F6
:1034700000040140FFFF0F0010B50446FA488442E3
:1034800008D101214015FEF79FFD00216015FEF7D0
:103490009BFD17E0F548844208D101210015FEF795
:1034A00093FD00212015FEF78FFD0BE0F0488442CC
:1034B00008D10121C803FEF787FD00214FF4004029
:1034C000FEF782FD10BD30B5024600200023506893
:1034D000E84C20400D790C6844EA052420435060F4
:1034E0009068E54C2040D1E902542C434D7944EAE0
:1034F000450420439060D06A20F470000C7C641E68
:10350000E4B2234340EA0350D06230BD00210160A1
:10351000017141718160C16001210174704721B165
:10352000826842F00102826003E0826822F00102B8
:103530008260704721B1826842F48072826003E049
:10354000826822F480728260704710B50023CBB28B
:103550001AB144681C43446002E044689C434460E0
:1035600010BD816841F0080181607047014600206C
:103570008A6802F008020AB1012000E000207047CA
:10358000816841F0040181607047014600208A682B
:1035900002F004020AB1012000E00020704721B1CE
:1035A000826842F4A002826003E0826822F4A002F2
:1035B00082607047014600208A6802F480020AB1E6
:1035C000012000E00020704710B50A4600210023CA
:1035D000416821F46041531E41EA4331416010BD0E
:1035E00021B1426842F40062426003E0426822F482
:1035F000006242607047F0B504460D46002000218D
:10360000092D11DDE068A5F10A0606EB460707263D
:1036100006FA07F18843A5F10A0606EB460603FA07
:1036200006F10843E0600CE0206905EB450707263A
:1036300006FA07F1884305EB450603FA06F108434D
:103640002061072A0FDA606B561E06EB86071F26DD
:1036500006FA07F18843561E06EB860605FA06F1C0
:103660000843606322E00D2A0FDA206BD61F06EBB9
:1036700086071F2606FA07F18843D61F06EB860643
:1036800005FA06F10843206310E0E06AA2F10D0696
:1036900006EB86071F2606FA07F18843A2F10D06FE
:1036A00006EB860605FA06F10843E062F0BD21B19B
:1036B000826842F48012826003E0826822F4801201
:1036C000826070470146C86C80B2704766484C30D3
:1036D0000068704721B1426842F48062426003E0B2
:1036E000426822F480624260704721B1426842F42D
:1036F0008052426003E0426822F480524260704788
:103700000A460021816821F4E0411143816070473D
:1037100021B1826842F40042826003E0826822F4B0
:1037200000428260704721B1826842F402128260D6
:1037300003E0826822F40212826070470146002092
:103740008A6802F400120AB1012000E000207047EC
:10375000F0B504461546002000220026092911DD97
:10376000E068A1F10A0707EB470C072707FA0CF2FC
:103770009043A1F10A0707EB470703FA07F210434A
:10378000E0600CE0206901EB410C072707FA0CF21E
:10379000904301EB410703FA07F210432061A06B4D
:1037A000C0F30156EF1C06F1010CA7EB0C0707EB69
:1037B000870C1F2707FA0CF29043EF1C06F1010C4F
:1037C000A7EB0C0707EB870701FA07F21043A0638A
:1037D000F0BD10B50A4600210023816B21F4401191
:1037E000531E41EA0351816310BD08B500230093C5
:1037F0000090009B0B440093009B1A6008BD08B525
:10380000024600200090009201F12800009B18441D
:1038100000900098006880B208BD0A460021416807
:10382000164B1940114341607047416282627047F4
:103830000A460021416821F01F0111434160704791
:1038400040B109490831096841F40001064A0832CB
:10385000116007E004490831096821F40001024AB7
:103860000832116070470000002401400028014028
:10387000003C0140FFFEF0FFFDF7F1FFFFFD3FFFC1
:103880000246002013680B400BB1012000E000202D
:103890007047CA430260704770B50246002000239B
:1038A00000240B125568CEB205EA060415681D40C7
:1038B00015B10CB1012000E0002070BD00220A12F9
:1038C000D34303607047000001684FF6FE72114059
:1038D00001600021016041608160C1608D498842C2
:1038E00008D18C490839496841F00F01894A083AE2
:1038F00051608AE087491431884208D185490839E6
:10390000496841F0F001834A083A51607DE08149FD
:103910002831884208D17F490839496841F47061EB
:103920007C4A083A516070E07A493C31884208D1BB
:1039300078490839496841F47041764A083A51603B
:1039400063E074495031884208D1724908394968A6
:1039500041F470216F4A083A516056E06D49643174
:10396000884208D16B490839496841F47001694AB5
:10397000083A516049E067497831884208D1654981
:103980000839496841F07061624A083A51603CE088
:103990006149884206D1011F096841F00F01021FE9
:1039A000116032E05C491431884208D15A49091F3C
:1039B000096841F0F001584A121F116025E056498C
:1039C0002831884208D15449091F096841F47061BF
:1039D000514A121F116018E04F493C31884208D10A
:1039E0004D49091F096841F470414B4A121F11608B
:1039F0000BE049495031884207D14749091F0968FE
:103A000041F47021444A121F1160704710B5002222
:103A1000026847F6F0739A430C6A8B6823430C697B
:103A200023434C6923438C692343CC6923434C6A69
:103A300023438C6A23431A430260CB6843600B68BC
:103A400083604B68C36010BD0021016041608160EC
:103A5000C160016141618161C16101624162816254
:103A6000704721B1026842F00102026004E002687E
:103A70004FF6FE731A40026070471AB103680B4399
:103A8000036002E003688B43036070474160704746
:103A90000146486880B2704701460020002201F0CC
:103AA00080531BB11C4B083B1A6802E0194B083BC2
:103AB0001A6802EA01030BB1012000E00020704700
:103AC00000F0805119B11449091F086002E0114942
:103AD00008394860704701460020002201F08053F9
:103AE0001BB10D4B083B1A6802E00A4B083B1A68F1
:103AF00002EA01030BB1012000E00020704700F052
:103B0000805119B10449091F086002E001490839D0
:103B10004860704708000240080402400CB50020CD
:103B2000019000906C48006840F480306A49086059
:103B300000BF6948006800F4003000900198401C04
:103B40000190009818B90198B0F5A06FF1D16248C2
:103B5000006800F4003010B10120009001E0002066
:103B600000900098012843D15C48006840F01000A4
:103B70005A4908600846006820F0030008600846BB
:103B8000006840F0020008605348406852494860AD
:103B90000846406848600846406840F480604860D5
:103BA0000846406820F47C1048600846406840F4AD
:103BB000E81048600846006840F08070086000BF68
:103BC0004548006800F000700028F9D0424840687D
:103BD00020F00300404948600846406840F0020079
:103BE000486000BF3C48406800F00C000828F9D14C
:103BF0000CBD10B5FFF792FF10BD10B53648006838
:103C000040F00100344908600846406834490840E3
:103C10003149486008460068324908402E4908602A
:103C20000846006820F4802008600846406820F4B8
:103C3000FE0048604FF41F008860FFF7DAFF4FF086
:103C400000602949086010BD10B500210020002245
:103C5000214B5B6803F00C0121B1042906D008292F
:103C600028D107E0214B224C236027E01F4B204C3A
:103C7000236023E0184B5B6803F47010164B5B68FD
:103C800003F48032022303EB904022B9194B4343E3
:103C9000174C23600DE0104B5B6803F4003323B135
:103CA000144B4343124C236003E0104B4343104C2E
:103CB000236003E00D4B0E4C236000BF00BF064B9A
:103CC0005B68C3F303130C4CE15C094B1B68CB40EE
:103CD000074C236010BD000000100240002002408D
:103CE0000000FFF8FFFFF6FE08ED00E000127A008A
:103CF0005000002000093D005400002030B480EA4C
:103D0000010202F0004530F0004221F0004013D0E3
:103D100090B1C30DD40DC2F31601C0F31600E41A1E
:103D200041F4000140F400027D34914201D3641C4F
:103D300000E04900002C02DA30BC002070474FF44C
:103D400000000023914201D3891A034340084FEA3F
:103D50004101F7D151B1914202D14FF0004105E04C
:103D600002D24FF0010101E06FF0010103EBC450FA
:103D7000284430BC00F008B92DE9FE4F81EA030465
:103D800004F0004421F0004100944FF0000B23F0B8
:103D9000004350EA01045ED052EA03045BD0C3F34F
:103DA0000A54C1F30A552C44A4F2F3340194A0FB45
:103DB0000254C1F3130141F48011C3F3130343F41C
:103DC000801301FB024400FB034E840A970A44EA75
:103DD000815447EA8357A4FB076802958D0A05FBC7
:103DE00007854FEA932C04FB0C542705029D4FEAEC
:103DF000065847EA1637B5EB08056EEB070C870E39
:103E0000920E47EA811742EA8312A7FB0201B6EB42
:103E10000B0164EB00042B0D43EA0C335E1844EBFA
:103E20001C50DA465146E7FB0201C5F313044FEA82
:103E30000B3343EA14534FEA0432019C43EA06036E
:103E4000A4F10C040294009CCDE900B400F0E2F867
:103E500003B0BDE8F08F00200146F9E7C10F80EA0A
:103E6000E0700844CA079623002100F096B8962314
:103E70000022114600F091B80EB5C10F80EAE07043
:103E80000844CA07002140F233438DE80E000A4679
:103E90000B4600F0BFF803B000BD00F0004220F078
:103EA0000040C10DC0F3160040F400007F2901DA84
:103EB00000207047962903DCC1F19601C84001E05B
:103EC00096398840002AF4D04042704770B5C1F35B
:103ED0000A5201F000450024C1F3130140F2FF3300
:103EE00041F480119A4201DA002070BD40F2334360
:103EF0009A42A2F2334203DC524200F035F800E06D
:103F000090402C43F1D0404270BD00F0004230F0B0
:103F100000400AD0C10D01F56071C0F3160042EAFD
:103F20000151C20840071143704700200146704705
:103F300001F0004330B421F0004150EA010206D004
:103F40000A0DA2F56072C1F31301002A02DC30BC35
:103F500000207047440F44EAC104C100E01830BC9F
:103F600000EBC25000F010B8202A04DB203A21FAFE
:103F700002F00021704721FA02F3D040C2F1200282
:103F800091400843194670470029A8BF7047401C5C
:103F9000490008BF20F00100704710B4B0FA80FC5F
:103FA00000FA0CF050EA010404BF10BC704749B19C
:103FB000CCF1200421FA04F411FA0CF118BF01210C
:103FC00021430843A3EB0C01CB1D4FEA00614FEAEC
:103FD000102042BF002010BC704700EBC3501044BB
:103FE0000029A4BF10BC7047401C490008BF20F046
:103FF000010010BC704710B5141E73F1000408DAFC
:10400000401C41F1000192185B411A4301D120F09C
:10401000010010BD2DE9F04D92469B4611B1B1FA59
:1040200081F202E0B0FA80F22032904600F052F8BD
:1040300004460F4640EA0A0041EA0B0153465A463D
:10404000084313D0114653EA010019D0C8F14002C9
:104050005046FFF789FF05460E46504659464246F0
:1040600000F038F8084305D0012004E02046394626
:10407000BDE8F08D0020054346EAE0762C43374347
:104080000A986305E40AA0EB08000022FD0A44EA4E
:1040900047540A3002D500200146E9E7010510190E
:1040A0006941DDE9084500196941BDE8F04DA2E725
:1040B000064C074D06E0E06840F0010394E8070075
:1040C00098471034AC42F6D3FCF736F808420008A3
:1040D00028420008202A04DB203A00FA02F10020DE
:1040E00070479140C2F1200320FA03F31943904036
:1040F000704700000FB4054B10B503A9044A02989D
:1041000000F017F810BC5DF814FB0000A1040008D3
:104110006400002002E008C8121F08C1002AFAD17A
:1041200070477047002001E001C1121F002AFBD137
:1041300070472DE9F84F9946924688460546002774
:1041400006E025280AD051464A4690476D1C7F1C40
:1041500028780028F5D13846BDE8F88F002315F8F7
:10416000011F18462E2915D115F8011F04232A29ED
:104170000DD06FF02F022978A1F13004092C09D855
:1041800000EB800002EB400008446D1CF3E758F898
:10419000040B6D1C2A78002ADDD0632A07D0732A0D
:1041A0000FD0104651464A4690477F1C2AE018F827
:1041B000042B8DF8002000218DF801106E4601219E
:1041C00003E058F8046B4FF0FF315A074FF000043A
:1041D00001D409E0641C84420BDA8C42FADB325DC4
:1041E000002AF7D105E0641C8C42FCDB305D00281E
:1041F000F9D1274404E016F8010B51464A4690478E
:10420000641EF8D26D1CA3E72842000800000020BD
:104210006800000014410008904200086800002077
:1042200020050000244100080000000000000001FB
:10423000000000000000000000000000000000007E
:104240000000001AE500000000000000033F4A2AB9
:1042500036A2823B022200000000000000000000A5
:10426000000000000000010203040102030406072D
:10427000080902040608000000A24A040000000029
:104280000000000001020304060708090000000006
:0400000508000131BD
:00000001FF
